:020000040800F2
:10000000780B0020B1010008B9010008BB0100080D
:10001000BD010008BF010008C10100080000000088
:10002000000000000000000000000000C301000804
:10003000C501000800000000C7010008C901000850
:10004000CB010008CB010008CB0100081B410008D0
:10005000CB010008CB010008CB010008CB01000850
:10006000CB010008CB010008CB010008CB01000840
:10007000CB010008CB010008CB010008CB01000830
:10008000CB010008CB010008CB010008CB01000820
:10009000CB010008CB010008CB010008CB01000810
:1000A000CB010008CB010008CB010008CB01000800
:1000B0006149000863480008C9460008CB010008F0
:1000C000CB010008CB010008CB010008CB010008E0
:1000D000CB010008CB01000899260008CB010008DD
:1000E000CB010008CB010008CB01000800F002F8AA
:1000F00000F04FF80AA090E8000C82448344AAF173
:100100000107DA4501D100F044F8AFF2090EBAE870
:100110000F0013F0010F18BFFB1A43F0010318473B
:10012000F8AF000018B00000103A24BF78C878C1BA
:10013000FAD8520724BF30C830C144BF04680C60ED
:10014000704700000023002400250026103A28BF35
:1001500078C1FBD8520728BF30C148BF0B60704739
:10016000662907F09886642905F05E87732906F0F2
:10017000B882002070471FB507F0DBFD06F0D0FA0B
:1001800004000020002107F015F8E0601FBD10B545
:1001900010BD06F0CDFB1146FFF7EDFF04F068FE41
:1001A00006F0EBFB03B4FFF7F2FF03BC02F010FA1A
:1001B0000948804709480047FEE7FEE7FEE7FEE7FB
:1001C000FEE7FEE7FEE7FEE7FEE7FEE70448054937
:1001D000054A064B70470000B14F0008ED000008CB
:1001E00078050020780B0020780700207807002091
:1001F00036490143364A1160704770B5002100232B
:100200000F22C4784CB3324C246804F4E064C4F583
:10021000E0644FEA1421C1F1040322FA01F24478A8
:1002200004FA03F1847804EA020444EA01014FEA83
:100230000111284C0678A155047804F01F054FF0F1
:10024000010404FA05F405784FEA65154FF0E0263D
:1002500006EB8505C5F8004109E0047804F01F05A8
:100260000124AC401C4D0678761145F8264070BD3F
:100270001A4A0A4002431A4B1A60704741B1194AA0
:10028000126842EA00024FF0E023C3F8102D07E0A5
:10029000144A126822EA00024FF0E023C3F8102D3E
:1002A0007047042808D14FF0E021096941F00401AA
:1002B0004FF0E022116107E04FF0E021096921F0E1
:1002C00004014FF0E0221161704700000000FA05C0
:1002D0000CED00E000E400E080E100E080FFFF1FA3
:1002E00008ED00E010ED00E010B50446F848844247
:1002F00008D10121401500F036FF0021601500F003
:1003000032FF17E0F348844208D10121001500F0C4
:100310002AFF0021201500F026FF0BE0EE48844262
:1003200008D10121C80300F01EFF00214FF4004056
:1003300000F019FF10BD30B50246002000235068C0
:10034000E64C20400D790C6844EA052420435060B7
:100350009068E34C2040D1E902542C434D7944EAA3
:10036000450420439060D06A20F470000C7C641E29
:10037000E4B2234340EA0350D06230BD0021016063
:10038000017141718160C16001210174704721B127
:10039000826842F00102826003E0826822F001027A
:1003A0008260704721B1826842F48072826003E00B
:1003B000826822F480728260704710B50023CBB24D
:1003C0001AB144681C43446002E044689C434460A2
:1003D00010BD816841F0080181607047014600202E
:1003E0008A6812F0080F01D0012000E00020704759
:1003F000816841F0040181607047014600208A68ED
:1004000012F0040F01D0012000E00020704721B15C
:10041000826842F4A002826003E0826822F4A002B3
:1004200082607047014600208A6812F4800F01D074
:10043000012000E00020704710B50A46002100238B
:10044000416821F46041531E41EA4331416010BDCF
:1004500021B1426842F40062426003E0426822F443
:10046000006242607047F0B504460D46002000214E
:10047000092D11DDE068A5F10A0606EB46070726FF
:1004800006FA07F18843A5F10A0606EB460603FAC9
:1004900006F10843E0600CE0206905EB45070726FC
:1004A00006FA07F1884305EB450603FA06F108430F
:1004B0002061072A0FDA606B561E06EB86071F269F
:1004C00006FA07F18843561E06EB860605FA06F182
:1004D0000843606322E00D2A0FDA206BD61F06EB7B
:1004E00086071F2606FA07F18843D61F06EB860605
:1004F00005FA06F10843206310E0E06AA2F10D0658
:1005000006EB86071F2606FA07F18843A2F10D06BF
:1005100006EB860605FA06F10843E062F0BD21B15C
:10052000826842F48012826003E0826822F48012C2
:10053000826070470146C86C80B2704769480068A5
:10054000704721B1426842F48062426003E0426831
:1005500022F480624260704721B1426842F48052C6
:10056000426003E0426822F48052426070470A46CB
:100570000021816821F4E04111438160704721B17D
:10058000826842F40042826003E0826822F4004202
:100590008260704721B1826842F40212826003E0F7
:1005A000826822F4021282607047014600208A6845
:1005B00012F4001F01D0012000E000207047F0B5C8
:1005C00004461546002000220026092911DDE068B6
:1005D000A1F10A0707EB470C072707FA0CF2904333
:1005E000A1F10A0707EB470703FA07F21043E0609F
:1005F0000CE0206901EB410C072707FA0CF290434D
:1006000001EB410703FA07F210432061A06BC0F32E
:100610000156EF1C06F1010CA7EB0C0707EB870C4A
:100620001F2707FA0CF29043EF1C06F1010CA7EB11
:100630000C0707EB870701FA07F21043A063F0BD30
:1006400010B50A4600210023816B21F44011531E8E
:1006500041EA0351816310BD10B5002303460B44EA
:100660001A6010BD02460023134601F1280003441E
:10067000186880B270470A46002141681A4B194039
:100680001143416070474162826270470A4600210F
:10069000416821F01F0111434160704738B113498F
:1006A000096841F40001124AC2F8081406E00F4933
:1006B000096821F400010E4AC2F808147047024686
:1006C000002013680B4201D0012000E00020704799
:1006D0000024014000280140003C0140FFFEF0FFE3
:1006E000FDF7F1FF4C240140FFFD3FFF08240140CE
:1006F00000200140CA430260704770B502460020E6
:10070000002300240B125568CEB205EA06041568D2
:100710001D4202D00CB1012000E0002070BD00227B
:100720000A12D3430360704710B5012000F035FD75
:10073000002000F032FD10BD2449086070472449B4
:100740000860704723490860704701460020224A2C
:1007500010884FF67F4200EA020040EA01001F4A7B
:10076000A2F82C0C7047014600201B4A10884FF657
:10077000807200EA020040EA0100184AA2F82C0C3C
:1007800070470022144A2C3A024411607047014617
:100790000022114A2C3A0A44108870471048006819
:1007A000C0B270470F48008840F001000B49A1F823
:1007B000340C70470C480068C0B270470948008884
:1007C00040F002000549A1F8340C704704860D4240
:1007D00000860D4288860D422C6C0040006000406F
:1007E000A0860D42346C0040A4860D4201684FF68D
:1007F000FE72114001600021016041608160C160B2
:100800008749884208D186490839496841F00F0173
:10081000834A083A516088E081491431884208D1FE
:100820007F490839496841F0F0017D4A083A516032
:100830007BE07B492831884208D1794908394968E9
:1008400041F47061764A083A51606EE074493C3177
:10085000884208D172490839496841F47041704AA8
:10086000083A516061E06E495031884208D16C49C4
:100870000839496841F47021694A083A516054E0E6
:1008800067496431884208D165490839496841F4AB
:100890007001634A083A516047E061497831884203
:1008A00008D15F490839496841F070615C4A083AEB
:1008B00051603AE05B49884208D1A0F1040109681F
:1008C00041F00F01584AC2F804142EE05549143182
:1008D000884207D15549096841F0F001524AC2F8EF
:1008E000041422E04F492831884207D14F49096852
:1008F00041F470614C4AC2F8041416E049493C3195
:10090000884207D14949096841F47041464AC2F812
:1009100004140AE043495031884206D1434909682A
:1009200041F47021404AC2F80414704710B5002207
:10093000026847F6F0739A430C6A8B6823430C698C
:1009400023434C6923438C692343CC6923434C6A7A
:1009500023438C6A23431A430260CB6843600B68CD
:1009600083604B68C36010BD0021016041608160FD
:10097000C160016141618161C16101624162816265
:10098000704721B1026842F00102026004E002688F
:100990004FF6FE731A40026070471AB103680B43AA
:1009A000036002E003688B43036070474160704757
:1009B0000146486880B2704701460020002211F0CD
:1009C000805F02D01A4B1A6801E0174B1A680A427E
:1009D00001D0012000E00020704710F0805F02D0BD
:1009E0001249086001E01049486070470146002044
:1009F000002211F0805F02D00D4B1A6801E00A4B13
:100A00001A680A4201D0012000E00020704710F06F
:100A1000805F02D00549086001E0034948607047E3
:100A200008000240080402400000024004040240A2
:100A30000004024010B50446CA48844208D101218E
:100A4000042000F090FB0021042000F08CFB46E025
:100A5000C548844208D10121082000F084FB002110
:100A6000082000F080FB3AE0C048844208D1012110
:100A7000102000F078FB0021102000F074FB2EE025
:100A8000BB48844208D10121202000F06CFB0021EA
:100A9000202000F068FB22E0B648844208D1012102
:100AA000402000F060FB0021402000F05CFB16E0DD
:100AB000B148844208D10121802000F054FB00217C
:100AC000802000F050FB0AE0AC48844207D10121AD
:100AD000801500F048FB0021A01500F044FB10BD7C
:100AE00010B50121084600F03EFB0021012000F076
:100AF0003AFB10BD2DE9F0410246002500260020FA
:100B000000230024002791F803C00CF00F0591F892
:100B100003C01CF0100F03D091F802C04CEA050589
:100B2000B1F800C01CF0FF0F31D0146800202BE09A
:100B30004FF0010C0CFA00F3B1F800C00CEA030608
:100B40009E4220D183004FF00F0C0CFA03F7BC43F8
:100B500005FA03FC4CEA040491F803C0BCF1280F29
:100B600006D14FF0010C0CFA00FCC2F814C00AE0E8
:100B700091F803C0BCF1480F05D14FF0010C0CFAFD
:100B800000FCC2F810C0401C0828D1D31460B1F892
:100B900000C0BCF1FF0F34DD546800202EE000F1EE
:100BA000080C4FF0010808FA0CF3B1F800C00CEA89
:100BB00003069E4221D183004FF00F0C0CFA03F77D
:100BC000BC4305FA03FC4CEA040491F803C0BCF1F1
:100BD000280F05D100F1080C08FA0CF8C2F81480AF
:100BE00091F803C0BCF1480F07D100F1080C4FF099
:100BF000010808FA0CF8C2F81080401C0828CED36F
:100C00005460BDE8F0814FF6FF71018002218170D0
:100C10000421C17070470246002093680B4201D046
:100C2000012000E0002070470146886880B27047CC
:100C300002460020D3680B4201D0012000E00020D2
:100C400070470146C86880B27047016170474161D2
:100C500070470AB1016100E041617047C1607047AF
:100C60004FF480320A4382618161826182698269C4
:100C7000704702460020424B18684FF680731840B8
:100C800040EA021008433E4B186070473D49C86176
:100C90007047F0B50A46002300240021002500F02B
:100CA0000046B6F1004F02D1354EF16901E0344EF5
:100CB0007168C0F3034583B200F44016B6F5401FD7
:100CC00008D121F070612E4E766826F070662C4FA8
:100CD0007E6012E000F48016B6F5801F06D1032670
:100CE00006FA05F4A14341F0706106E0460D3601B5
:100CF00003FA06F6B14341F0706122B1460D3601A8
:100D000003FA06F6314300F00046B6F1004F02D177
:100D10001B4EF16101E01A4E7160F0BD30B500224A
:100D20008B071C0F0F2303FA04F2154B08338C10AA
:100D300053F824309343124C08348D1044F8253076
:100D400023468C1053F824308C07240F00FA04F447
:100D500023430B4C08348D1044F8253030BD0A492C
:100D60000860704700080140000C0140001001407D
:100D70000014014000180140001C01400020014007
:100D80000000014000002042DC00204210B501219B
:100D9000080700F0F5F900214FF0805000F0F0F95D
:100DA00010BD2C49086270472A4908617047014606
:100DB0000020294A106820F0E000084310607047C6
:100DC00026490860704710B502460020224B18687B
:100DD00020F0030010431860214B1B6843F004030C
:100DE0004FF0E024C4F8103D012901D130BF00E0EC
:100DF00020BF1B4B1B6823F004034FF0E024C4F812
:100E0000103D10BD1448006840F00400124908600D
:100E10000846006840F0020008601148006840F091
:100E200004004FF0E021C1F8100D00BF00BF30BF3B
:100E3000704701460020084A52680A4201D001204A
:100E400000E0002070470449096841EA8001024A35
:100E50001160704700000E4200700040A0000E427A
:100E600010ED00E0DB48006840F00100D94908605F
:100E700008464068D8490840D64948600846006896
:100E8000D6490840D34908600846006820F480200D
:100E900008600846406820F4FE0048604FF41F00D8
:100EA00088607047CB49096821F48031C94A1160D4
:100EB0001146096821F480211160B0F5803F03D00C
:100EC000B0F5802F0ED106E0C249096841F48031A7
:100ED000C04A116007E0BF49096841F4A021BD4A3A
:100EE000116000E000BF00BF704710B5014600224E
:100EF000002300204A11012A02D1B64C236806E0E3
:100F0000022A02D1B34C236A01E0B24C636A01F0B9
:100F10001F02012494401C4201D0012000E0002067
:100F200010BD70B500240025002600BF3120FFF75A
:100F3000DCFF0646641CB4F5A06F01D0002EF5D08E
:100F40003120FFF7D2FF08B1012500E00025284637
:100F500070BD014600209F4A106820F0F80040EA6A
:100F6000C100106070479E4908607047024600202B
:100F7000984B586820F47C1042EA01031843954BC3
:100F80005860704796490866704701460020914AAC
:100F9000506820F003000843506070478D48406857
:100FA00000F00C007047014600208A4A506820F08B
:100FB000F00008435060704701460020854A5068A1
:100FC00020F4E06008435060704701460020814AE9
:100FD000506820F4605040EAC1005060704729B169
:100FE0007C4A527A02437B4B5A7206E0794A527A23
:100FF000C343DBB21A40774B5A7270477949086095
:10100000704701460020734A506820F4404008436E
:10101000506070470021744A11706E4A82F82010A7
:10102000012802D0042808D103E001216E4A117082
:1010300004E005216C4A117000E000BF00BF70475A
:101040006A49086070476349096A0143614A11624D
:10105000704767490860704730B5002100220024BE
:1010600000235C4D6D6805F00C0121B1042905D009
:10107000082923D105E05F4D056022E05D4D056044
:101080001FE0544D6D6805F47012524D6D6805F403
:101090008034022505EB92421CB9574D554305603B
:1010A0000BE04C4D6D6815F4003F03D0524D554395
:1010B000056002E04F4D5543056002E04D4D05606F
:1010C00000BF00BF434D6D6805F0F00109094B4DAD
:1010D0006B5C0568DD4045603E4D6D6805F4E06180
:1010E000090A464D6B5C4568DD408560394D6D6889
:1010F00005F46051C90A414D6B5C4568DD40C5602F
:10110000344D6D6805F44041890B3D4D6B5CC568FD
:10111000B5FBF3F5056130BD29B12E4A5269024392
:101120002C4B5A6104E02B4A52698243294B5A6185
:10113000704729B1274A92690243264B9A6104E01D
:10114000244A92698243234B9A61704729B1214A0C
:10115000D26902431F4BDA6104E01E4AD26982431E
:101160001C4BDA61704729B11A4AD2680243194B05
:10117000DA6004E0174AD2688243164BDA6070479F
:1011800029B1144A12690243124B1A6104E0114A50
:10119000126982430F4B1A6170471A490860704701
:1011A0000F49C86470470B49C87170470948406AC5
:1011B00040F0807007494862704701460020054AA8
:1011C00092680A4201D0012000E0002070470149E6
:1011D00088727047001002400000FFF8FFFFF6FE23
:1011E00000004242D80042422010024080044242A5
:1011F0003C04424200127A0000093D000000002039
:10120000100000204004424239B1554A128842EA97
:101210000002544BA3F8002809E0514A12886FEAF3
:1012200000039BB202EA03024E4BA3F8002870476A
:101230004D48008840F010004A49A1F80408704762
:10124000494800884FF6EF7100EA01004549A1F8CE
:10125000040870470021454801884248B0F8180842
:1012600041EA0040704700B50246FFF7E1FF100C6D
:101270003F4908803B49A1F81C28FFF7E1FF00BD6A
:1012800000B50246FFF7D4FFC2F303403949088096
:101290003449A1F80C28FFF7D3FF00BD00B5024682
:1012A000FFF7C6FF100C344908802E49A1F8242806
:1012B000FFF7C6FF00BD0020304909884FEA0171E1
:1012C0004FEA11302749B1F8141841EA000070477D
:1012D00000BF2548008810F0200FFAD07047224840
:1012E00000884FF6F77100EA01001E49A1F80408D2
:1012F00000BF1D48008810F0080FFAD07047014663
:101300000020194A12880A4201D0012000E0002082
:101310007047154909886FEA000292B201EA02019A
:10132000104AA2F804187047014600200E4A12889D
:1013300002EA0102D0B20B4AB2F800280A4202D0F7
:1013400008B1012000E000207047074909886FEAD2
:10135000000292B201EA0201024AA2F804187047A0
:101360000028004000200040042800401C280040C5
:10137000182800400828004020280040102800407D
:1013800010B50446FF48844208D10121C014FFF77C
:10139000EAFE0021E014FFF7E6FEC4E0B4F1804F5E
:1013A00008D101210846FFF7EBFE00210120FFF7DD
:1013B000E7FEB8E0F448844208D101210220FFF79B
:1013C000DFFE00210220FFF7DBFEACE0EF488442A5
:1013D00008D101210420FFF7D3FE00210420FFF7EC
:1013E000CFFEA0E0EA48844208D101210820FFF79F
:1013F000C7FE00210820FFF7C3FE94E0E5488442C1
:1014000008D101211020FFF7BBFE00211020FFF7BB
:10141000B7FE88E0E048844208D101212020FFF790
:10142000AFFE00212020FFF7ABFE7CE0DB488442CA
:1014300008D101214014FFF796FE00216014FFF748
:1014400092FE70E0D648844209D10121C804FFF71A
:101450008AFE00214FF40020FFF785FE63E0D148AB
:10146000844209D101210805FFF77DFE00214FF4D8
:101470008010FFF778FE56E0CB48844209D1012165
:101480004805FFF770FE00214FF40010FFF76BFED8
:1014900049E0C648844208D101214020FFF770FE90
:1014A00000214020FFF76CFE3DE0C148844208D196
:1014B00001218020FFF764FE00218020FFF760FEFD
:1014C00031E0BC48844208D101218015FFF758FE65
:1014D0000021A015FFF754FE25E0B748844209D14A
:1014E00001210804FFF73FFE00214FF48030FFF791
:1014F0003AFE18E0B148844209D101214804FFF7BF
:1015000032FE00214FF40030FFF72DFE0BE0AC4817
:10151000844208D101218804FFF725FE00214FF401
:101520008020FFF720FE10BD00220288954B9842D4
:101530000ED09A4B98420BD0B0F1804F08D0924B0E
:10154000984205D0914B984202D0914B984204D1D9
:101550004FF68F731A404B881A438E4B984207D030
:101560008D4B984204D04FF6FF431A40CB881A4364
:1015700002808B8883850B880385824B98420BD031
:10158000864B984208D08C4B984205D08B4B9842A2
:1015900002D08B4B984201D10B7A038601238382C0
:1015A000704770B5002400220023058C4FF6FE76AC
:1015B00035400584028C8388048B4FF68F752C4050
:1015C000B51E2C400D882C43751E2A400D892A43D8
:1015D0004D882A436B4DA8420BD0704DA84208D0CD
:1015E000754DA84205D0754DA84202D0744DA84251
:1015F00013D14FF6F7752A404D892A434FF6FB75F4
:101600002A408D882A434FF6FF652B404FF6FF5541
:101610002B408D892B43CD892B4383800483CD8838
:101620008586028470BD70B5002400220023058CDD
:101630004FF6EF7635400584028C8388048B48F69C
:10164000FF752C404FF6FF452C400D882D0644EACF
:1016500015444FF6DF752A400D892D0542EA1542E3
:101660004D882D0542EA1542464DA84202D04B4D09
:10167000A8421BD14FF67F752A404D892D0542EABD
:1016800015424FF6BF752A408D882D0542EA154256
:101690004FF6FF352B404FF2FF752B408D89AD047F
:1016A00043EA1543CD89AD0443EA1543838004839F
:1016B000CD880587028470BD70B500240022002308
:1016C000058C4FF6FF6635400584028C8388848B39
:1016D0004FF68F752C404FF6FC752C400D882C432F
:1016E0004FF6FF552A400D892D0642EA15424D88D6
:1016F0002D0642EA1542234DA84202D0274DA842AA
:101700001BD14FF2FF752A404D892D0642EA154242
:101710004FF6FF352A408D882D0642EA15424EF6D7
:10172000FF752B404DF6FF752B408D892D0543EA43
:101730001543CD892D0543EA154383808483CD88E5
:101740008587028470BD70B5002200230024058CBB
:101750004EF6FF7635400584038C8488828B48F6EC
:10176000FF752A404FF6FF452A400D882D0642EAB4
:1017700015424DF6FF752B400D892D0743EA1543A1
:101780004D881FE0002C014000040040000800408C
:10179000000C0040001000400014004000340140E4
:1017A000004C01400050014000540140001800402E
:1017B000001C004000200040004001400044014067
:1017C000004801402D0743EA1543F94DA84202D0D5
:1017D000F84DA84206D14BF6FF752C408D89AD051A
:1017E00044EA154484808283CD88A0F84050038465
:1017F00070BD828B4FF2FF331A408283828B0B06BF
:1018000042EA134282837047F0B50C461546002227
:1018100000210026078C4EF6FF7C07EA0C070784A0
:10182000828B018C27073E0C40F6FF473A402F067B
:1018300042EA17421F0742EA1742DD4FB8420ED074
:10184000DC4FB8420BD0B0F1804F08D0DA4FB8422D
:1018500005D0DA4FB84202D0D94FB84206D14DF682
:10186000FF77394046F48057394305E047F6FF5784
:10187000394044F48057394382830184F0BD828B20
:101880004FF6F3731A408283828B0A438283704738
:10189000F0B50C461546002200210026078C4FF6B5
:1018A000FF6C07EA0C070784828B018C27063E0C2D
:1018B0004FF60C773A401F0545EA17473A43BC4FAD
:1018C000B8420ED0BB4FB8420BD0B0F1804F08D019
:1018D000B94FB84205D0B94FB84202D0B84FB8425C
:1018E00006D14FF6FF57394046F48077394305E07B
:1018F0004FF2FF57394044F48077394382830184A3
:10190000F0BD028B4FF2FF331A400283028B0B06AD
:1019100042EA134202837047F0B50C461546002296
:1019200000210026078C4FF6EF7C07EA0C0707849E
:10193000028B018C27053E0C40F6FF473A401F07FB
:1019400042EA17422F0642EA1742994FB8420ED098
:10195000984FB8420BD0B0F1804F08D0964FB842A4
:1019600005D0964FB84202D0954FB84206D14FF6F7
:10197000DF77394046F01007394305E04FF65F77CF
:10198000394044F01007394302830184F0BD028BD3
:101990004FF6F3731A400283028B0A4302837047A7
:1019A000F0B50C46154600220021068C4FF6FE7756
:1019B0003E400684028B018C4FF60C7632401E05A9
:1019C00045EA164632437A4EB0420ED0794EB042C6
:1019D0000BD0B0F1804F08D0774EB04205D0774E93
:1019E000B04202D0764EB04206D14FF6FD7631407D
:1019F00044F00106314305E04FF6F576314044F0FE
:101A00000106314302830184F0BD70B505460C46E2
:101A1000674885420ED0674885420BD0B5F1804FAC
:101A200008D06548854205D06448854202D06448A4
:101A3000854200D100E000BF208850B92389A288E8
:101A400061882846FFF7ACFFE1882846FFF79FFF33
:101A500025E0208804280AD12389A28861882846A5
:101A6000FFF75AFFE1882846FFF74BFF17E0208871
:101A700008280AD12389A28861882846FFF708FF31
:101A8000E1882846FFF7FBFE09E02389A2886188E8
:101A90002846FFF7B9FEE1882846FFF7AAFE70BD89
:101AA0002DE9F04105460C4600260127608808B95B
:101AB000022600E00026A088012801D1022700E0CC
:101AC00001272088A0B92389A28861882846FFF7CA
:101AD00067FFE1882846FFF75AFF23893A463146D7
:101AE0002846FFF719FFE1882846FFF70AFF13E0B1
:101AF0002389A28861882846FFF70EFFE1882846DF
:101B0000FFF7FFFE23893A4631462846FFF748FF94
:101B1000E1882846FFF73BFFBDE8F0810A884B8843
:101B20001A438B881A43CB881A430B891A434B8973
:101B30001A438B891A43A0F8442070474FF6FF716F
:101B4000818000210180C1804180017270470021A5
:101B5000018041808180C180018141818181C18179
:101B60007047002101804180012181800021C180D6
:101B7000018170470021018041808180C180018105
:101B800041818181704721B1028842F001020280C7
:101B900004E002884FF6FE731A400280704789B154
:101BA000B0F8442042F40042A0F8442010E00000C5
:101BB000002C0140003401400004004000080040B7
:101BC000000C0040B0F84420C2F30E02A0F84420FC
:101BD000704710B51AB183890B43838104E0838970
:101BE000CC43A4B22340838110BD8182704741EA77
:101BF0000203A0F84830704710B51AB183890B432F
:101C0000838104E08389CC43A4B22340838110BD47
:101C100001894FF6F8721140018170470A46002190
:101C200001894FF68F73194011430181704730B518
:101C300004460D4629462046FFF7F0FF208940F074
:101C40000700208130BD2DE9F04104460D461646BF
:101C50001F46602D06D13B46012231462046FFF744
:101C60005BFE05E03B46012231462046FFF798FE29
:101C700029462046FFF7D2FF208940F00700208147
:101C8000BDE8F08130B50C4600210189C9B21D06BE
:101C900042EA154525432943018130BD2DE9F04134
:101CA00005460E4617469846002443463A463146B6
:101CB0002846FFF7E7FF2C894FF6F8710C4044F0F7
:101CC00007044FF68F710C4044F070042C81BDE87E
:101CD000F081F0B504460D4616461F463B46324697
:101CE00029462046FFF7CEFF208940F4804020811E
:101CF000F0BD0185828270470A46002101884FF6B7
:101D00008F731940114301807047F0B50C4615469A
:101D10001E460021002200230189028B038C4FF60E
:101D2000F877394021434FF6FC473A4040F201171B
:101D30003A434FF6DD773B40370545EA17473B43CB
:101D4000018102830384F0BD0A460021018B4FF616
:101D50008F7319401143018370470A460021018B9C
:101D600048F6FF731940130641EA13410183704797
:101D70000A460021818B4FF68F73194011438183EE
:101D800070470A460021818B48F6FF7319401306FD
:101D900041EA13418183704721B1028842F08002F9
:101DA000028004E002884FF67F731A400280704779
:101DB00021B1828842F00402828004E082884FF6DA
:101DC000FB731A408280704721B1828842F008027A
:101DD000828004E082884FF6F7731A408280704751
:101DE00021B1828842F00102828004E082884FF6AD
:101DF000FE731A40828070470A460021018B4FF61D
:101E0000F77319401143018370470A460021018B83
:101E10004FF2FF731940130641EA134101837047E3
:101E20000A460021818B4FF6F773194011438183D5
:101E300070470A460021818B4FF2FF731940130649
:101E400041EA1341818370470A460021018B4FF616
:101E5000FB7319401143018370470A460021018B2F
:101E60004FF6FF331940130641EA134101837047CF
:101E70000A460021818B4FF6FB7319401143818381
:101E800070470A460021818B4FF6FF331940130635
:101E900041EA1341818370470A460021018B4FF6C6
:101EA0007F7319401143018370470A460021018B5B
:101EB000C1F30E01130641EA1341018370470A463C
:101EC0000021818B4FF67F73194011438183704746
:101ED0000A460021818BC1F30E01130641EA13412A
:101EE000818370470A460021018C4FF6FD7319402B
:101EF0001143018470470A460021018C4FF6F773A5
:101F000019401143018470470A460021018C4FF6A5
:101F1000DF731940130541EA1341018470470A46F3
:101F20000021018C4FF67F731940130541EA1341DC
:101F3000018470470A460021018C4FF6FF53194077
:101F4000130641EA1341018470470A460021018CBF
:101F50004FF2FF731940130641EA134101847047A1
:101F60000A460021018C4DF6FF731940130741EA20
:101F700013410184704730B5002301248C40A3B283
:101F8000048CDD43ADB22C400484048C02FA01F5CC
:101F9000ADB22C43048430BD30B5002304248C4002
:101FA000A3B2048CDD43ADB22C400484048C02FA4D
:101FB00001F5ADB22C43048430BD70B5034600205A
:101FC00000241846183001258D40ACB21D8CE64324
:101FD000B6B235401D8409B1082909D100EB610072
:101FE000056825F0700505600568154305600CE07F
:101FF0000D1FADB200EB6500056825F4E0450560F6
:102000000568160645EA1645056070BD21B10288CF
:1020100042F00202028004E002884FF6FD731A408B
:102020000280704721B1028842F00402028004E07D
:1020300002884FF6FB731A400280704721B18288F4
:1020400042F08002828004E082884FF67F731A405B
:102050008280704702884FF6F7731A400280028828
:102060000A430280704782884FF68F731A4082803D
:1020700082880A438280704702894FF6F8731A40BB
:10208000028102890A430281704702894FF67F73F9
:102090001A40028102890A43028170478184704795
:1020A00081857047818670470187704781877047B7
:1020B000A0F84010704702884FF6FF431A40028094
:1020C00002880A43028070470146888E70470146A5
:1020D000088F70470146888F70470146B1F840006D
:1020E00070470146888C70470146088D704702464C
:1020F0000020138A0B4201D0012000E0002070472D
:10210000CA430282704730B50246002000230024F3
:10211000158A05EA0103958905EA010413B10CB19A
:10212000012000E0002030BDCA4302827047000059
:1021300010B50446FC48844209D101218803FFF709
:1021400012F800214FF48040FFF70DF832E0F74815
:10215000844209D101214804FFF712F800214FF40D
:102160000030FFF70DF825E0F148844209D1012144
:102170008804FFF705F800214FF48020FFF700F8EE
:1021800018E0EC48844209D10121C804FEF7F8FFA9
:1021900000214FF40020FEF7F3FF0BE0E6488442F5
:1021A00008D101210805FEF7EBFF00214FF4801054
:1021B000FEF7E6FF10BD2DE9F04786B005460E4656
:1021C0000024A24600BFA1460027B08900B100BF8D
:1021D0002F462C8A4CF6FF700440F08804432C8272
:1021E000AC894EF6F3100440B088318908437189F8
:1021F00008430443AC81AC8A4FF6FF400440B089E9
:102200000443AC8201A8FEF727FFC748874202D1EA
:10221000DDF810A001E0DDF80CA0A88910F4004F53
:1022200008D00AEBCA0000EB0A1031684900B0FB85
:10223000F1F807E00AEBCA0000EB0A1031688900E8
:10224000B0FBF1F86420B8FBF0F004012009642130
:1022500001FB1089A88910F4004F08D0322000EB50
:10226000C900B0FBF1F000F00700044308E03220A1
:1022700000EB09106421B0FBF1F000F00F00044303
:102280002C8106B0BDE8F0874FF4165101600021A3
:102290008180C18001810C214181002181817047B1
:1022A00010B502460020108A4FF2FF0318400B8839
:1022B0004C8823438C882343CC88234318431082C3
:1022C00010BD0021018041808180C180704721B113
:1022D000828942F40052828104E082894DF6FF73C4
:1022E0001A4082817047F0B503460024002600257D
:1022F0000020A1F510676A3F00D100BF1846C1F366
:10230000421401F01F06012707FA06F5012C01D13E
:102310000C3004E0022C01D1103000E014301AB16E
:1023200007682F43076002E00768AF430760F0BD0E
:1023300010B51AB1838A0B43838204E0838ACC43AD
:10234000A4B22340838210BD028A4FF6F0731A4074
:102350000282028A0A430282704782894FF2FF7327
:102360001A40828182890A438281704721B1828921
:1023700042F00202828104E082894FF6FD731A4026
:1023800082817047028A4FF6DF731A400282028A06
:102390000A430282704721B1028A42F480420282DB
:1023A00004E0028A4BF6FF731A4002827047C1F3C1
:1023B00008028280704701468888C0F30800704791
:1023C000818941F0010181817047028BD2B2028381
:1023D000028B42EA012202837047028B02F47F42A1
:1023E0000283028B0A430283704721B1828A42F042
:1023F0002002828204E0828A4FF6DF731A408282D2
:10240000704721B1828A42F01002828204E0828AFF
:102410004FF6EF731A408282704721B1828A42F0F0
:102420000802828204E0828A4FF6F7731A408282A1
:10243000704721B1828942F40042828103E082899F
:10244000C2F30E028281704721B1828A42F4006297
:10245000828204E0828A4FF2FF731A4082827047C0
:10246000828A4FF6FB731A408282828A0A438282F2
:10247000704721B1828A42F00202828204E0828A9D
:102480004FF6FD731A408282704702460020B1F574
:10249000007F00D100BF13880B4201D0012000E073
:1024A0000020704701F40072B2F5007F00D100BF38
:1024B000CA430280704770B50246002400230025FD
:1024C0000020A1F510666A3E00D100BFC1F342159D
:1024D00001F01F03012606FA03F3012D02D19689AC
:1024E000334006E0022D02D1168A334001E0968A7D
:1024F00033400C12012606FA04F41688344013B156
:102500000CB1012000E0002070BD10B500220023B6
:10251000A1F510646A3C00D100BF0A120124944066
:10252000A3B2DC43048010BD0038014000440040E9
:1025300000480040004C00400050004010B56FF0D3
:102540000400FDF7AEFE09201F4908700846007818
:102550004FF47A7148431D49088010BD01461B4A5B
:1025600012884A434FF0E0235A6100229A61012207
:102570001A6100BF4FF0E022106910F0010F02D085
:1025800010F4803FF6D000224FF0E0231A619A61E8
:10259000704701460C4A12784A434FF0E0235A61D3
:1025A00000229A6101221A6100BF4FF0E0221069F7
:1025B00010F0010F02D010F4803FF6D000224FF04F
:1025C000E0231A619A617047140000201600002071
:1025D000014600BF704770B504460D464021CA4809
:1025E000FFF760FFE1B2C848FFF7E1FE00BF4021FE
:1025F000C548FFF74AFF0028F9D0204670BD10B546
:1026000086B0044601210420FEF793FD0121480411
:10261000FEF79CFD0420ADF8140003208DF8160091
:1026200018208DF8170005A9B848FEF763FA0820AE
:10263000ADF8140004208DF8170005A9B348FEF783
:1026400059FA26208DF8000003208DF801008DF83E
:10265000020001208DF803006846FDF7CEFD0194CD
:102660000020ADF80800ADF80A00ADF80C00ADF898
:1026700010000C20ADF80E0001A9A348FFF79BFD48
:10268000012240F22551A048FFF72DFE01219E486E
:10269000FFF71DFE06B010BD10B540F225519A4857
:1026A000FFF709FF10B39848FFF785FEC4B29848BA
:1026B000008810F4004F2BD19548008810F4804F0B
:1026C0000CD00A2C03D000209149088020E09048CB
:1026D000008840F400408E49088019E00D2C06D196
:1026E0008B48008840F480408949088010E0884881
:1026F0000088C0F30D0087490C5485480088401CB1
:102700008349088008460088C72801DD002008802A
:1027100010BD2DE9F04186B07D48008810F4004FCF
:102720007ED07C48007843280CD17B48837842785F
:10273000CDE900230378794802787948017879A0B7
:1027400003F000FC7348007854286AD14FF0010868
:1027500080480078F0BB00207F49086035E07F4961
:102760007D4A126801EB0211886805F077F804468B
:102770000D467A49784A126801EB0211486805F063
:102780006DF806460F4675487349096800EB01105D
:10279000837B72487049096800EB0110427B6F48E7
:1027A0006D49096800EB0110017BCDE9004502A8E5
:1027B0000EC032463B466848016869A003F0C2FB80
:1027C00065480068401C6449086073480068401E02
:1027D000614900E006E009688842C0DC6FA003F0B0
:1027E000B1FB8AE06C480068401C5B49086039E036
:1027F0005A49594A126801EB0211886805F02EF80F
:1028000004460D465549544A126801EB02114868C6
:1028100005F024F806460F4650484F49096801E084
:102820006FE06BE000EB0110837B4C484A4909687C
:1028300000EB0110427B49484749096800EB011051
:10284000017BCDE9004502A80EC0414608F1010810
:1028500032463B4642A003F075FB3F480068401CEF
:102860003D4908603C4800683C28C1DB00203A49EB
:10287000086036E03949384A126801EB021188686D
:1028800004F0ECFF04460D463449334A126801EB6C
:102890000211486804F0E2FF06460F462F482E4911
:1028A000096800EB0110837B2C482B49096800EB79
:1028B0000110427B29482849096800EB0110017B7F
:1028C000CDE9004502A80EC0414608F10108324694
:1028D0003B4623A003F036FB1F480068401C1E49FE
:1028E00008602D480068401E1B4909688842C1DC09
:1028F0004FF0010829A003F025FB00BF0020044988
:10290000088006B0BDE8F0810044004000080140A6
:102910001800002060000020280100203300002063
:1029200032000020433A20CEC2B6C83A253264A114
:10293000E620CAAAB6C83A253264252520CAB1BC09
:10294000E43A2532642D2532642D2532640D0A0DBA
:102950000A000000390000201C0000204401002073
:10296000543A20B4CECAFD3A25326420CEC2B6C84D
:102970003A25332E3066A1E620CAAAB6C83A252EDB
:102980003166252520CAB1BCE43A2532642D2532B2
:10299000642D2532640D0A00400000200D0A00005D
:1029A000002109E0002201E0531C9AB240F6B8333E
:1029B0009A42F9DB4B1C99B28142F3DB70474FF42A
:1029C0000072FF4B1A604FF48072FE4BC3F8142C58
:1029D0004FF02002C3F8102CFB4AD0604FF02002C9
:1029E000F74B1A60A3F104031A604FF48072F54BA1
:1029F000C3F8102CF44AD1604FF02002F04B1A605B
:102A0000A3F104031A604FF480721A60704700B596
:102A100001210020FFF7D3FF4FF47A70FFF7C0FFCA
:102A200000210120FFF7CBFF41F290711020FFF74A
:102A3000C6FF4FF41C516020FFF7C1FF0121612048
:102A4000FFF7BDFF02214620FFF7B9FF48F2100152
:102A50001320FFF7B4FF48F2FE011220FFF7AFFF8B
:102A60004FF4A0610220FFF7AAFF41F230010320DA
:102A7000FFF7A5FF40F203313020FFF7A0FF40F23F
:102A800003313120FFF79BFF40F203313220FFF783
:102A900096FF4FF440713320FFF791FF032134205C
:102AA000FFF78DFF40F203313520FFF788FF142137
:102AB0003620FFF784FF40F203313720FFF77FFF16
:102AC00040F203313820FFF77AFF40F2033139201A
:102AD000FFF775FF4FF440713A20FFF770FF0321B5
:102AE0003B20FFF76CFF40F203313C20FFF767FF0C
:102AF0004FF4A0513D20FFF762FF4FF40071922088
:102B0000FFF75DFF40F203319320FFF758FF40F6D7
:102B10000D019020FFF753FF41F218010320FFF74A
:102B20004EFF40F273110720FFF749FF00BD00B5CB
:102B300043F20801E320FFF742FF1221E720FFF7ED
:102B40003EFF41F23121EF20FFF739FF0021012044
:102B5000FFF735FF4FF4E0610220FFF730FF41F24D
:102B600030010320FFF72BFF00210420FFF727FF90
:102B700040F207210820FFF722FF00210920FFF77C
:102B80001EFF00210A20FFF71AFF00210C20FFF78B
:102B900016FF00210D20FFF712FF00210F20FFF785
:102BA0000EFF00211020FFF70AFF07211120FFF779
:102BB00006FF00211220FFF702FF00211320FFF77C
:102BC000FEFE4FF47A70FFF7EBFE41F290611020A9
:102BD000FFF7F5FE40F227211120FFF7F0FE32202B
:102BE000FFF7DEFE1D211220FFF7E9FE3220FFF77E
:102BF000D7FE4FF400611320FFF7E1FE14212920D6
:102C0000FFF7DDFE0B212B20FFF7D9FE3220FFF767
:102C1000C7FE00212020FFF7D2FE00212120FFF770
:102C2000CEFE07213020FFF7CAFE40F207713120A7
:102C3000FFF7C5FE06213220FFF7C1FE40F2047106
:102C40003520FFF7BCFE41F604713620FFF7B7FED2
:102C500004213720FFF7B3FE00213820FFF7AFFE35
:102C600040F206713920FFF7AAFE40F201713C20C4
:102C7000FFF7A5FE0F213D20FFF7A1FE0021502008
:102C8000FFF79DFEEF215120FFF799FE0021522012
:102C9000FFF795FE40F23F115320FFF790FE4FF4EF
:102CA0001C516020FFF78BFE01216120FFF787FE9A
:102CB00000216A20FFF783FE00218020FFF77FFEBE
:102CC00000218120FFF77BFE00218220FFF777FEA5
:102CD00000218320FFF773FE00218420FFF76FFEA1
:102CE00000218520FFF76BFE10219020FFF767FE83
:102CF00000219220FFF763FE03219320FFF75FFE80
:102D00004FF488719520FFF75AFE00219720FFF7B6
:102D100056FE00219820FFF752FE41F218010320D1
:102D2000FFF74DFE40F273110720FFF748FE00BD8C
:102D300008B54FF6FF70ADF8000003208DF80200D3
:102D400010208DF8030069461F48FDF7D3FE08BD2B
:102D500008B54FF6FF70ADF8000003208DF80200B3
:102D600048208DF8030069461748FDF7C3FE08BDEB
:102D700070B504464FF40070114908604FF480703C
:102D80001049C1F8140C4FF02000C1F8100C0E4887
:102D9000C4604FF020000A490860A1F104010860F6
:102DA0004FF480700860FFF7D3FF4FF4806005494F
:102DB000C1F8140C0448806885B20815034907E07F
:102DC000140C01400000014000100140100C0140B3
:102DD0000860FFF7ADFF4FF40070FF490860284618
:102DE00070BD08B501211820FEF7A3F94FF4E46087
:102DF000ADF8000001208DF8020010208DF80300CE
:102E00006946F5481038FDF775FEFFF791FFF24867
:102E1000006840F4C460F149C1F8100C08BD10B559
:102E2000FFF7DFFF0020FFF7A3FFED49088008460A
:102E30000088A0F50241303902D1FFF7E8FD01E03A
:102E4000FFF775FE0020FFF793FFE549088010BDEE
:102E5000E44908807047E4490880704730B504466B
:102E60000D4621462020FFF7AAFD29462120FFF725
:102E7000A6FD30BD4FF40071DC4A11604FF4807143
:102E8000D64AC2F8101C4FF02001C2F8101CD849D5
:102E9000C8604FF02001D54A1160CF4A11604FF44D
:102EA000807111604FF40071116070474FF4007031
:102EB000CE4908604FF48070C849C1F8140C4FF037
:102EC0002000C54908604FF02200C949C8604FF092
:102ED0002000C6490860C04908604FF4807008604F
:102EE0004FF40070086070472DE9F04306468946AC
:102EF000174600240025A046B04649464046FFF745
:102F0000ADFF00BF1EE0FFF7D1FF00250FE037F84F
:102F100014000121A940084204D1B3480088FFF7FA
:102F2000A9FF03E0AF480088FFF7A4FF6D1C102D38
:102F3000EDD308F1010000F0FF0849464046FFF7D5
:102F40008DFF641C182CDED3BDE8F08370B50546F8
:102F50000E461446A4F12000C4B204EB4400A54977
:102F600001EB001231462846FFF7BEFF70BDF0B5F9
:102F700007460C46002540F23F1609E0227831460C
:102F80003846FFF7E3FFA6F1100086B2641C6D1C03
:102F9000207808B1142DF1D3F0BD10B5044696A1E8
:102FA0002046FFF7E4FF10BD30B5054600240021A0
:102FB0000846FFF753FFFFF779FF00BF03E02846FD
:102FC000FFF758FF641CB4F5963FF8D330BD30B519
:102FD00004460D4640F23F10401B85B22946E0B240
:102FE000FFF73CFF4FF48070804908604FF4007099
:102FF0007A49C1F8140C4FF022007D49C8604FF0A7
:1030000020007A490860744908604FF40070086035
:103010004FF4807008604FF400707049C1F8140CD0
:10302000704800887249C8604FF020006F490860FE
:10303000694908604FF400706849C1F8100C30BD50
:10304000F0B504460D4616461F46B44206DBA01BEB
:10305000401C81B25020FFF7B2FC03E00021502059
:10306000FFF7ADFC21465120FFF7A9FCBD4206DB6E
:10307000E81B401C81B25220FFF7A1FC03E00021B5
:103080005220FFF79CFC29465320FFF798FC294665
:103090002046FFF7E3FEF0BD00B54FF4A073F02229
:1030A000591EEF20FFF7CCFF41F218010320FFF774
:1030B00086FC00BD2DE9F0410646884615461F46B0
:1030C000002441463046FFF7C9FE012F11D100BF51
:1030D0000CE0FFF7EBFE43480088FFF7CBFE701CC7
:1030E000C6B241463046FFF7B9FE641CAC42F0D38D
:1030F0000AE0FFF7DBFE002404E03A480088FFF70F
:10310000B9FE641CAC42F8D3BDE8F081F0B50546C9
:103110000E4617461C460023224631462846FFF736
:10312000C9FFE919C8B2002322463146FFF7C2FFA2
:1031300001233A4631462846FFF7BCFF301B401CAE
:1031400081B201233A462846FFF7B4FFF0BD2DE9CE
:10315000F04306460F4690460320A0EB48090024A2
:1031600045468BE07A1991B23219D0B2FFF776FE5C
:10317000FFF79CFE1B480088FFF77CFE7A1B91B28C
:103180003219D0B2FFF76AFEFFF790FE15480088AB
:10319000FFF770FE7A1991B2321BD0B2FFF75EFED4
:1031A000FFF784FE0F480088FFF764FE7A1B91B298
:1031B000321BD0B2FFF752FEFFF778FE09480088B5
:1031C000FFF758FE3A1991B27219D0B2FFF746FED6
:1031D000FFF76CFE03481BE0100C014000000140AB
:1031E000280000202400002026000020140C0140AC
:1031F000001001409A7E000820202020202020205E
:10320000202020202020202020202020000000003E
:103210000088FFF72FFE3A1B91B27219D0B2FFF768
:103220001DFEFFF743FEFC480088FFF723FE3A1916
:1032300091B2721BD0B2FFF711FEFFF737FEF648CE
:103240000088FFF717FE3A1B91B2721BD0B2FFF74E
:1032500005FEFFF72BFEF0480088FFF70BFEB9F1E3
:10326000000F04DA062000EB8400814405E0601BB7
:103270000A2101EB800081446D1E641CAC427FF684
:1032800071AFBDE8F08370B506460024002540F21A
:103290003F110020FFF7E2FDFFF708FE00BF14E03A
:1032A00000250FE056F824000121A940084204D16E
:1032B000DA480088FFF7DEFD03E0D7480088FFF713
:1032C000D9FD6D1C202DEDD3641CB4F5166FE7D32A
:1032D00070BD70B50446002500266688A08846EAC1
:1032E00000466589A08945EA0045701B46082C44C4
:1032F00041F208010320FFF762FBFFF7D7FD00252D
:1033000004E02088FFF7B6FDA41C6D1CB542F8D37D
:1033100041F218010320FFF752FB70BD4FF400711A
:10332000BF4A11604FF48071BE4AC2F8141CBE49F6
:10333000C8604FF02001BA4A1160A2F10402116086
:103340004FF400711160704710B54FF40070B4492C
:1033500008604FF48070B349C1F8140C4FF020009E
:10336000B24908604FF02200AF49C8604FF020001A
:10337000AB490860AD4908604FF480700860FFF702
:10338000E7FC4FF48060A749C1F8140CA648806898
:1033900084B20815A5490860FFF7CAFC4FF4007015
:1033A000A2490860204610BD00B500211020FFF79B
:1033B00006FB00211120FFF702FB00211220FFF77E
:1033C000FEFA00211320FFF7FAFA1420FFF7E8FABB
:1033D00041F2B0711020FFF7F2FA40F237111120DC
:1033E000FFF7EDFA0520FFF7DBFA40F23911122062
:1033F000FFF7E5FA0520FFF7D3FA4FF4E851132061
:10340000FFF7DDFA13212920FFF7D9FA0520FFF78E
:10341000C7FA40F273110720FFF7D1FA00BD00B5DB
:1034200040F273110720FFF7CAFA00BD00B5002172
:103430000720FFF7C4FA00BD30B505460021084655
:10344000FFF70CFDFFF732FD002409E015F814200A
:103450006100491C695C42EA0120FFF70BFD641C16
:10346000B4F5963FF2DB30BD2DE9F04104460D4640
:103470001646A0462F4640F23F10A0EB080085B24A
:103480003C462946E0B2FFF7E9FC4FF480706449FE
:1034900008604FF400706349C1F8140C4FF022002B
:1034A0006149C8604FF020005D4908605F490860CD
:1034B0004FF4007008604FF4807008604FF40070A3
:1034C0005849C1F8140C5848C6604FF020005449C0
:1034D0000860564908604FF400705249C1F8100C5A
:1034E000BDE8F08170B504460D46B4F5A07F01DA61
:1034F000F02D01DB002070BD2946E0B2FFF7AEFCE5
:103500002220FFF70BFF4FF08830474908604860E2
:103510004FF6FF70C8608815444908604FF400708A
:103520004049C1F8140C4FF480603D4908604FF0E9
:103530000400FFF735FA3C48806886B24FF480609B
:103540003A490860364908604FF00400FFF728FA4E
:103550003548806886B24FF48060344908604FF483
:10356000007008604FF033302F49086048604FF614
:10357000FF70C8603046BEE72DE9F04F04460E46A6
:1035800017469846DDF824A04FF0000B381B401C6E
:103590001FFA80FB354626E02946E0B2FFF75EFCC5
:1035A0002220FFF7BBFE4FF0000918E04FF48070B7
:1035B0001E4908604FF400701A49C1F8140C1A48EB
:1035C000C0F80CA04FF020001549086017490860AA
:1035D0004FF40070086009F101001FFA80F9D94525
:1035E000E4DB681C85B24545D6DDBDE8F08F2DE9EA
:1035F000F84F05460E4690469946DDF828B0A8EBF0
:103600000500401C1FFA80FAA9EB0600401C80B29E
:103610000090002434E00000240000202600002058
:10362000140C01400000014000100140100C01404A
:10363000301981B2E8B2FFF711FCFFF737FC002721
:103640001AE04FF48070FB4908604FF40070FA49AB
:10365000C1F8140C04FB0A703BF81000F749C8606D
:103660004FF02000F6490860F24908604FF40070FE
:10367000086007F1010087B25745E2DB601C84B2A5
:1036800000988442D4DBBDE8F88F2DE9FF4F84B069
:1036900081468A460020039002900698A0EB090517
:1036A0000798A0EB0A06CDF80490CDF800A0002DF5
:1036B00001DD012705E00DB9002702E04FF0FF37DB
:1036C0006D42002E02DD4FF0010806E016B94FF002
:1036D000000802E04FF0FF387642B54201DD2C468B
:1036E00000E034464FF0000B21E0009881B20198D1
:1036F00080B2FFF76CFC0398284403900298304492
:1037000002900398A04205DD0398001B03900198E6
:10371000384401900298A04205DD0298001B0290F7
:103720000098404400900BF101001FFA80FB601CE0
:103730008345DADD08B0BDE8F08FF0B504460D46EC
:1037400016461F462B46324629462046FFF79DFF68
:103750003B46224629462046FFF797FF3B46324626
:1037600039462046FFF791FF3B4632462946304610
:10377000FFF78BFFF0BD2DE9F04306460F4690465C
:10378000002445460320A0EB48093CE07A1B91B297
:10379000321990B2FFF71BFC3A1B91B2721990B22A
:1037A000FFF715FC3A1991B2721990B2FFF70FFCAE
:1037B0007A1991B2321990B2FFF709FC7A1991B2D5
:1037C000321B90B2FFF703FC3A1991B2721B90B210
:1037D000FFF7FDFB7A1B91B2321B90B2FFF7F7FBAC
:1037E0003A1B91B2721B90B2FFF7F1FB641CB9F166
:1037F000000F03DAA000801D814404E0601B8000FC
:103800000A3081446D1EAC42C0DDBDE8F0832DE975
:10381000FF4F81B080460E4617461C46B3462046F1
:10382000E31704EB5373DB1021464FEAE47C04EB0F
:103830005C7C4FEAEC0CB4EBCC0C02D04FF0010CEA
:1038400001E04FF0000C6344224604EBD47C4FEAC5
:103850006C0C03FB0CF3DBB20093A7F12000C7B2A2
:10386000002554E00C2C07D107EB4700754901EB0C
:10387000800010F8059014E0102C05D1724800EB80
:10388000071010F805900CE0182C07D107EBC700C3
:103890006E4901EB800010F8059002E005B0BDE82C
:1038A000F08F4FF0000A2CE019F0800F06D0684826
:1038B000028831464046FFF7D7FD07E00E9828B949
:1038C0006448028831464046FFF7CEFD4FEA496022
:1038D0004FEA1069701C86B2F02E00DBDEE7A6EB23
:1038E0000B00A04209D15E4608F101001FFA80F8E2
:1038F000B8F5A07F00DBD1E706E00AF1010000F097
:10390000FF0ABAF1080FCFDB00BF681CC5B20098F0
:103910008542A7DB00BFC1E710B50246012000E0E9
:1039200050430B00A1F10104E1B2F9D110BD2DE922
:10393000FF4F81B0074691461E460E9D4FF0000A8C
:1039400000243BE0301B401EC1B20A20FFF7E4FF19
:10395000B9FBF0F00A21B0FBF1F201FB120000F01C
:10396000FF08BAF1000F16D1701EA04213DDB8F1A6
:10397000000F0ED10023AB4605EBD571491001FBBA
:10398000047188B200932B4620220299FFF73FFF73
:1039900012E04FF0010A0023AB4605EBD571491048
:1039A00001FB047188B200932B4608F13001CAB2C2
:1039B0000299FFF72CFF00BF601CC4B2B442C1DB08
:1039C00005B0BDE8F08F2DE9FF4F82B00646924664
:1039D0001F46DDE90F4800200190002562E0781BBA
:1039E000401EC1B20A20FFF797FFBAFBF0F00A2190
:1039F000B0FBF1F201FB120000F0FF090198C0B921
:103A0000781EA8423ADDB9F1000F35D118F0800FC9
:103A100022D008F00103A34604EBD471491001FB46
:103A2000056188B20093234630220399FFF7EFFE29
:103A300021E023E0100C0140000001400010014093
:103A4000140C01406A900008DE940008CE9A000829
:103A5000240000202600002008F00103A34604EB08
:103A6000D471491001FB056188B2009323462022DE
:103A70000399FFF7CCFE13E00120019008F0010349
:103A8000A34604EBD471491001FB056188B2009391
:103A9000234609F13001CAB20399FFF7B8FE00BF0F
:103AA000681CC5B2BD429ADB06B0BDE8F08F2DE9B7
:103AB000F84704460D4690469946DDE9096704F04B
:103AC000FF0A08EB04001FFA80F809EB05001FFA53
:103AD00080F916E0444502DB5446A81985B24D45ED
:103AE00000DB14E0002300933A7833462946204651
:103AF000FFF78DFE304606EBD67104EB61018CB208
:103B00007F1C38787E2802DC38782028E2DA00BF73
:103B1000BDE8F88710B5FFF782F94FF6FF70FFF7A1
:103B200043FA0020FFF794F94FF6FF70FFF793F97F
:103B300010BD2DE9FF4F81B080460E4617461C464A
:103B400000962046E31704EB5373DB1021464FEA3F
:103B5000E47C04EB5C7C4FEAEC0CB4EBCC0C02D0C4
:103B60004FF0010C01E04FF0000C63445B00224673
:103B700004EBD47C4FEA6C0C03FB0CF303F0FF095D
:103B8000002554E00C2C07D107EB47002A4901EB34
:103B9000C00010F805A014E0102C05D1274800EB58
:103BA000471010F805A00CE0182C07D107EBC70050
:103BB000234901EBC00010F805A002E005B0BDE804
:103BC000F08F4FF0000B2CE01AF0800F06D01D484C
:103BD000028831464046FFF747FC07E00E9828B9B7
:103BE0001948028831464046FFF73EFC4FEA4A60DA
:103BF0004FEA106A701C86B2F02E00DBDEE70098F8
:103C0000301AA04209D1009E08F101001FFA80F885
:103C1000B8F5A07F00DBD1E706E00BF1010000F072
:103C2000FF0BBBF1080FCFDB00BF681CC5B24D45D1
:103C3000A8DB00BFC2E700002AA8000872A800089D
:103C4000D2A80008240000202600002008B5012189
:103C50003020FDF76EFA10208DF803004FF47F40FE
:103C6000ADF8000003208DF8020069460E48FCF70D
:103C700041FF10208DF803000420ADF80000032060
:103C80008DF8020069460948FCF734FF0421074813
:103C9000FCF7DBFF4FF47F410348FCF7D6FF04211C
:103CA0000248FCF7D4FF08BD001001400014014099
:103CB00000B591B001210846FDF72EFA01214FF41D
:103CC0000270FDF736FA0120ADF8400000208DF8B3
:103CD000430010A94B48FCF70DFF4B48FCF786FD4D
:103CE0004A4805904A480690002007900120089015
:103CF000002009900A904FF480700B9080000C9087
:103D000020200D9000020E9000200F9005A93E4843
:103D1000FCF70CFE01213C48FCF733FE002000902C
:103D20008DF8040001208DF805004FF4602002900A
:103D30000020039001208DF81000694633484C386C
:103D4000FCF7F9FA4FF44040FDF75BF90523012237
:103D500008212E484C38FCF786FB01212B484C38B3
:103D6000FCF720FB012129484C38FCF710FB2748C1
:103D70004C38FCF72EFB00BF24484C38FCF72EFBD8
:103D80000028F9D121484C38FCF732FB00BF1F480E
:103D90004C38FCF732FB0028F9D101211B484C3884
:103DA000FCF735FB11B000BD2DE9F047184800883D
:103DB00003F0B0FE814603F051FD0446154A164B50
:103DC00003F02EFB064603F00BFA80464046BDE8A2
:103DD000F0872DE9F05FFFF7E7FF8346584603F0D1
:103DE0003DFD80460D4A0E4B03F01AFB06460022AD
:103DF0000C4B03F049FC044603F0F2F982465046AE
:103E0000BDE8F09F000C0140080002404C24014036
:103E10002A000020B4D934E70C684A3F3EF8E0831A
:103E20000F3E38400000344008B503208DF80000F4
:103E300000208DF801008DF8020001208DF80300AC
:103E40006846FCF7DAF908BDF0B503460C4615469E
:103E5000642093FBF0F0C6B2642093FBF0F700FB04
:103E60001730C1B2132E02DD01F16400C1B2084661
:103E7000CF1701EB977701EBA702072092FBF0F732
:103E800000FB172082B25719601EDFF8B8C21CF879
:103E90000000384482B2CF1701EB9777BF10B1EB27
:103EA000870703D1032C01DA501E82B2072092FB50
:103EB000F0F700FB1720C0B2F0BD0146CA1701EBB6
:103EC00092729210B1EB820212D1642091FBF0F257
:103ED00000FB121050B94FF4C87091FBF0F200FBD8
:103EE000121008B9012070470020FCE70120FAE712
:103EF0000020F8E770B5002600240025FDF7AAF998
:103F000006469148B6FBF0F490480088A0423CD0A9
:103F10008E490C8040F2B27510E02846FFF7CDFFC5
:103F200040B1B4F5B77F02D3A4F5B77404E0681CC0
:103F300085B206E0A4F26D14681C85B2B4F5B67FB4
:103F4000EBD800BF82488580002516E0804988882C
:103F5000FFF7B3FF30B1012D04D11D2C01D31D3C5F
:103F600009E00CE07B48405DA04203D87948405D01
:103F7000241A00E003E0681C85B21C2CE6D200BFC6
:103F8000681C73498871601CC8716F48B6FBF0F1FA
:103F900000FB11644FF46160B4FBF0F06C490870F1
:103FA0004FF46160B4FBF0F100FB11403C21B0FB29
:103FB000F1F0674948704FF46160B4FBF0F100FB29
:103FC00011403C21B0FBF1F201FB12006049887006
:103FD0000B46DA7999799888FFF736FF5C490872C1
:103FE000002070BD2DE9F05F06460F4690469946C9
:103FF000DDE90AAB002440F2B270864203DB40F6F2
:104000003300864202DD0120BDE8F09F40F2B27528
:104010000AE02846FFF751FF10B14F48044401E081
:104020004E480444681C85B2B542F2DB781EC7B224
:10403000002510E04748405D40F2A321484304EBCF
:10404000C0143046FFF739FF18B1012D01D13E48A9
:104050000444681C85B2BD42ECDBA8F1010040F2CB
:10406000A321484304EBC014C9EB4910C0EB09205D
:1040700004EB0014CAEB0A1004EB80045C44012139
:104080004FF0C050FDF762F80120FCF78AFE204691
:10409000FDF7E9F8FDF71CF9FFF72CFF0020B3E767
:1040A0001CB501214FF0C050FDF750F80120FCF77E
:1040B00078FEFCF739FB0120FCF7C2FF00BF61204E
:1040C000FCF713FF0028FAD04FF40070FCF7BBFF99
:1040D0000120FCF7BEFFFDF702F9FDF7F9F8012119
:1040E0000846FDF791F8FDF7F3F849F63F40FDF774
:1040F000C7F8FDF7EDF83B23009301930A23122242
:10410000022140F2E170FFF76DFFFDF7E1F8FFF7E4
:104110008BFEFFF7EFFE00201CBD10B50120FDF760
:1041200003F908B1FFF7E6FE0220FDF7FDF810B134
:104130000220FDF70AF90520FDF707F9FDF7C8F899
:1041400010BD00006AB00008805101002C00002062
:104150002801002076B000080085E2018033E101EB
:1041600008B501210C20FCF7E4FF40F20110ADF886
:10417000000001208DF8020048208DF803006946F8
:10418000C148FCF7B7FC0620ADF8000001208DF80F
:10419000020048208DF803006946BC48FCF7AAFCE1
:1041A00008BD10B5044614B10120B9490870B848DB
:1041B000007880B30121B448FCF72DFD78B14FF4AD
:1041C0008071B148FCF727FD48B10221AF48FCF7E8
:1041D00022FD20B10421AD48FCF71DFDD8B90A200D
:1041E000FEF7BCF90020AA4908700121A648FCF797
:1041F00012FD08B9012010BD4FF48071A248FCF7F0
:104200000AFD08B90220F6E70221A048FCF703FDE9
:1042100010B90320EFE706E004219C48FCF7FBFC03
:10422000D8B90420E7E701219748FCF7F4FC0128FE
:1042300013D101029448FCF7EEFC01280DD10221B4
:104240009248FCF7E8FC012807D104218F48FCF7CD
:10425000E2FC012801D18E4908700020CBE710B59F
:104260000020FFF79EFF8B49087008460078012860
:1042700006D0022817D0032825D0042812D191E0B7
:104280004FF6FF70FEF790FE0020834908708348C8
:104290000078401C8149087008460078012801DD3B
:1042A00000200870EDE07D48007801280AD17A48A6
:1042B0000078401C7849087008460078042801DD21
:1042C00000200870DDE07448007801280FD17448A0
:1042D0000078401C72490870084600783C2801DBD1
:1042E0003C2008706E480178012000F0E1FC6A482B
:1042F000007802280FD16B480078401D694908708A
:10430000084600785A2801DB5A2008706548017871
:10431000022000F0CDFC6048007803280FD16248ED
:104320000078401C6049087008460078052801DBC9
:10433000052008705C480178032000F0B9FC56485D
:10434000007804282DD15948008800F5FA705749A3
:1043500008800846008842F21071884202DB084655
:104360005249088051480088514991FBF0F0401EA5
:104370000906888501218807FDF70EFD4B48008856
:10438000642190FBF1F0494909884FF47A7291FB5E
:10439000F2F101EB810100EB41042146042000F021
:1043A00087FC6EE03C480078012810D13C4800783A
:1043B000401E3B4908700846007810F1140F01DCDC
:1043C000EC20087036480178012000F071FC32487A
:1043D000007802280FD133480078401F3149087017
:1043E000084600780A2801DC0A2008702D48017868
:1043F000022000F05DFC2848007803280FD12A48ED
:104400000078401E2849087008460078012801DC21
:104410000120087024480178032000F049FC1E4860
:10442000007804282CD121480088A0F5FA701F4993
:10443000088008460088B0F57A7F02DC4FF47A7075
:1044400008801A4800881A4991FBF0F0401E0906BE
:10445000888501218807FDF79FFC144800886421A6
:1044600090FBF1F0114909884FF47A7291FBF2F157
:1044700001EB810100EB41042146042000F018FC0F
:1044800000BF00BF10BD000000080140000C01404B
:1044900030000020310000202F0000202E000020DE
:1044A00032000020330000203400002036000020BD
:1044B000407E05007FB505460C4601210420FCF72F
:1044C00045FEADF80850ADF804400020ADF80A00F4
:1044D000ADF8060001A9FF48FDF726F801221146B4
:1044E000FC48FDF776FB1E208DF8000001208DF8BA
:1044F000010000208DF8020001208DF803006846BD
:10450000FBF77BFE0121F348FDF73DFB7FBD2DE965
:10451000F047F148008803F0FDFA04460146EF48F1
:1045200003F036FA0646EC48008803F0F3FA074633
:104530000146EA4803F02CFA0546E94903F036FC47
:1045400004464FF07E5103F0F9FA13D2E248008896
:1045500003F0E0FA07460146E04803F019FA054681
:10456000DF4903F023FC0446002103F0EEFB01D2F7
:104570004FF07E564FF07E51304603F017FC074651
:1045800003F06CF904460022D64B02F00DFF0BD26B
:104590004FF07E51304603F009FC0446002103F041
:1045A000D4FB01D24FF07E56CB48008803F0B2FA1C
:1045B00081460146C94803F0EBF98046CA4903F039
:1045C000F5FB074603F04AF904460022C54B02F00A
:1045D000EBFE12D2C048008803F09CFA0746014661
:1045E000BE4803F0D5F90546BF4903F0DFFB04469A
:1045F000002103F0AAFB00D2BB4EB748008803F0AD
:1046000089FA07460146B54803F0C2F905464FF05E
:10461000824103F0CBFB04464FF07E5103F08EFA4B
:1046200017D2AD48008803F075FA81460146AB48C1
:1046300003F0AEF980464FF0824103F0B7FB074626
:1046400003F00CF904460022A64B02F0E7FF00D26B
:10465000A64EA148008803F05DFA074601469F4830
:1046600003F096F90546A24903F0A0FB04464FF07B
:104670007E5103F063FA16D29748008803F04AFA95
:1046800081460146954803F083F98046984903F036
:104690008DFB074603F0E2F804460022914B02F03E
:1046A000BDFF00D2934E3046BDE8F08770B5FFF7EE
:1046B0002EFF0646904903F075FA05468F4903F030
:1046C000F9F80446204670BD10B501218148FDF778
:1046D0001AFD012862D18A480078401C8849087078
:1046E0008848007808B900F0E3FC86480078012883
:1046F00001D100F0DAFD8448007881490978B1EBF6
:10470000400F47DB00207E49087080480068401C4D
:104710007E490860084600687D497C4A126801EBC2
:10472000021108707B4800687949784A126801EBE9
:1047300002114860FFF7BAFF7549744A126801EB2D
:1047400002118860744800787149704A126801EB60
:1047500002110873704841786D486C4A126800EB8A
:10476000021041736C4881786948684A126800EB0E
:1047700002108173654800683C2805DB002063490E
:1047800008600120654908706548008880F00100D4
:104790006349088001214F48FDF7C6FC10BD30B5C4
:1047A00089B005460C4601210220FCF7CFFC01210F
:1047B0000420FCF7BEFC8020ADF8040004208DF836
:1047C000070003208DF8060001A95648FCF792F96E
:1047D000ADF81C50ADF818400020ADF81E00ADF843
:1047E0001A0006A95048FCF79FFE1D208DF8140002
:1047F00005208DF8150000208DF8160001208DF899
:10480000170005A8FBF7F9FC0420ADF8080000200C
:10481000ADF80A000120ADF80C000020ADF80E0044
:10482000ADF8100002A94048FDF73AF960213E4872
:10483000FDF7F4F904213C48FDF71EFC80213A48BD
:10484000FDF723FC012205213748FDF7C2F90521B8
:104850003548FDF769FC01213348FDF794F909B0AB
:1048600030BD10B504213048FDF74DFC20B12E4875
:10487000FDF72DFC1849088005212B48FDF754FC55
:1048800010BD30B585B005460C4601210846FCF741
:104890005DFC01210420FCF74CFC0220ADF8100067
:1048A00003208DF8120010208DF8130004A91D4874
:1048B000FCF720F9ADF80850A0B2ADF804000020D4
:1048C000ADF80A00ADF8060001A94FF08040FCF7F2
:1048D0002BFE2BE0000800403C00002000A08C478D
:1048E000000030410000E03F0000E04000000841CF
:1048F0000000104100001841E4380E41E0388E3FBE
:10490000380000202E00002034000020400000204D
:10491000440100205C000020280100203900002014
:10492000440000200008014000040040012211461C
:104930009007FDF74EF91C208DF8000007208DF838
:10494000010000208DF8020001208DF80300684668
:10495000FBF753FC01218807FDF715F905B030BDC1
:1049600010B501218807FDF7CEFB012814D10D48B1
:10497000008818B902210C48FCF767F9094800883B
:10498000012803D102210848FCF761F90548008895
:1049900080F001000349088001218807FDF7C4FB6E
:1049A00010BD00003A0000200008014008B50121B8
:1049B0000820FCF7BEFBC020ADF8000010208DF8E9
:1049C000030003208DF8020069469D48FCF792F829
:1049D00001209C4908609C49C1F89C0108BD10B5A4
:1049E0009748006820F070409849C1F8000C0846CC
:1049F000D0F8000C40F04050914908604FF00100A1
:104A0000934908609049C1F898014FF00400FDF700
:104A1000C0FD00208C49C1F89C010420FDF7B9FDC0
:104A200000208949C1F8980110BD10B5844800687C
:104A300020F070408549C1F8000C0846D0F8000C01
:104A400040F040507E4908604FF000007D4908600A
:104A50007D49C1F89C014FF00400FDF79AFD01204B
:104A6000784908607849C1F89C014FF00400FDF7CF
:104A700090FD10BD10B500247148006820F0704012
:104A80007249C1F8000C0846D0F8000C40F0004014
:104A90006B4908604FF001006D490860FDF779FD32
:104AA00001206949C1F89801FDF773FD07E0601C1A
:104AB000C4B2FA2C03DDFFF7B8FF012010BD654832
:104AC00000680028F3D15F49086000BFF6E710B521
:104AD00000205C4908605D48D0F8000C20F0704070
:104AE0005A49C1F8000C0846D0F8000C40F040507C
:104AF000534908604FF000005349C1F89C014FF042
:104B00000200FDF746FD01204F49C1F8980102203F
:104B1000FDF73FFD00204C49C1F8980110BD10B5CC
:104B20000020484908604948D0F8000C20F0704047
:104B30004649C1F8000C0846D0F8000C40F040503F
:104B40003F4908604FF001003F49C1F89C014FF018
:104B50000200FDF71EFD01203B49C1F8980102202B
:104B6000FDF717FD00203849C1F8980110BD70B558
:104B700004463348006820F070403449C1F8000C06
:104B80000846D0F8000C40F040502D4908604FF026
:104B900000002C49086005461AE0E0092C4908602D
:104BA0004FEA44604FEA10644FF00200FDF7F1FC59
:104BB00001202549C1F898010220FDF7EAFC0020F8
:104BC000204908604FF00200FDF7E3FC681CC5B205
:104BD000082DE2DB70BD70B505460024184800685A
:104BE00020F070401949C1F8000C0846D0F8000CBC
:104BF00040F00040C1F8000C4FF0000616E0002025
:104C0000104908604FF00200FDF7C3FC01200E4977
:104C1000C1F898016006040E0E48006808B1601CD7
:104C2000C4B20120FDF7B5FC701CC6B2082EE6DB4D
:104C300015B9FFF774FF01E0FFF749FF204670BD8B
:104C4000000C014098812142008021420000014077
:104C50009C8121421C81214270B504460026FFF749
:104C6000BEFE2546E11704EB11610912A02202EBFA
:104C70004101C8B2FFF77BFFFFF7FCFEE11704EB31
:104C800011610912A4EB0121C8B2FFF770FFFFF711
:104C9000F1FEFFF7A4FEA120FFF769FFFFF7EAFE90
:104CA0000020FFF798FF0646FFF7BFFE304670BDB5
:104CB00070B504460E46FFF792FE2546E11704EB59
:104CC00011610912A02202EB4101C8B2FFF74FFFA8
:104CD000FFF7D0FEE11704EB11610912A4EB0121EB
:104CE000C8B2FFF744FFFFF7C5FE3046FFF73FFFAE
:104CF000FFF7C0FEFFF799FE0A20FDF72FFC70BDFD
:104D000010B5FFF753FEFF20FFF7A6FF882816D146
:104D10000120FFF7A1FF524908700220FFF79CFF16
:104D2000504908700320FFF797FF4F49087004208F
:104D3000FFF792FF642148434C49088029E088210D
:104D4000FF20FFF7B5FF28210120FFF7B1FF502119
:104D50000220FFF7ADFF01210320FFF7A9FF0F217C
:104D60000420FFF7A5FF0120FFF776FF3C490870FC
:104D70000220FFF771FF3B4908700320FFF76CFF2B
:104D8000394908700420FFF767FF64214843374919
:104D9000088010BD2DE9F04105460E461746002457
:104DA00009E0E20026FA02F2D1B22A1990B2FFF726
:104DB0007FFF601CC4B2BC42F3DBBDE8F0812DE98B
:104DC000F04107460C460026002509E03602391955
:104DD000491B491E88B2FFF73FFF0644681CC5B255
:104DE000A542F3DB3046BDE8F08110B5FF20FFF7A8
:104DF00033FF0446552C01D1002010BD5521FF2062
:104E0000FFF756FFFF20FFF727FF0446552C01D17F
:104E10000020F2E70120F0E770B506460C46154683
:104E200008E03046721C96B2FFF716FF04F8010B3B
:104E3000681E85B2002DF4D170BD70B505460C46D4
:104E4000164606E021782846FFF732FF681C85B237
:104E5000641C3000A6F101018EB2F3D170BD0000D8
:104E600032000020330000203400002036000020F3
:104E70004FF48060FBF7BCF9FDF760FB4FF4165070
:104E8000FDF7BDFBFFF73CFFFEF744FEFEF7DEFE3D
:104E9000FEF70EFFFFF764F900BFFFF701F90028E6
:104EA000FBD141F61F4141F28730FFF703FB0021A0
:104EB0004FF6FF70FFF773FC09480088094991FB22
:104EC000F0F0401E84B263212046FFF7DAFC05E0D3
:104ED000FFF7C5F9FDF71DFC00F098FFF8E70000AB
:104EE00036000020407E050000210020674A12683D
:104EF00042F48032654B1A6000BF644A126802F4C3
:104F00000030491C10B9B1F5A06FF6D15F4A1268A4
:104F100012F4003F01D0012000E00020012842D11E
:104F20005B4A126842F01002594B1A601A46126826
:104F300022F003021A601A46126842F002021A6056
:104F4000524A5268514B5A601A4652685A601A4681
:104F5000526842F480625A601A46526822F47C1207
:104F60005A601A46526842F4E8125A601A461268A9
:104F700042F080721A6000BF444A126812F0007F4B
:104F8000FAD0424A526822F00302404B5A601A4655
:104F9000526842F002025A6000BF3C4A526802F076
:104FA0000C02082AF9D1704710B5FFF79DFF10BD1C
:104FB00010B53648006840F00100344908600846E2
:104FC0004068344908403149486008460068324921
:104FD00008402E4908600846006820F480200860D8
:104FE0000846406820F4FE0048604FF41F008860C7
:104FF000FFF7DAFF4FF000602849086010BD10B5D8
:10500000002100200022214B5B6803F00C0121B13C
:10501000042906D0082928D107E0214B214C236020
:1050200027E01F4B1F4C236023E0184B5B6803F401
:105030007010164B5B6803F48032022303EB904040
:1050400022B9194B4343174C23600DE00F4B5B68AB
:1050500013F4003F04D0144B4343124C236003E08D
:105060000F4B43430F4C236003E00D4B0D4C23606B
:1050700000BF00BF054B5B68C3F303130B4CE15C3F
:10508000084B1B68CB40074C236010BD001002404A
:10509000002002400000FFF8FFFFF6FE08ED00E0F0
:1050A00000127A004800002000093D004C0000205A
:1050B0007CB500230093182300220C217020FEF7FA
:1050C00038FD00230093182301220C218820FEF7CD
:1050D00030FD00230093182302220C21A020FEF7AC
:1050E00028FD00230093182303220C21B820FEF78B
:1050F00020FD00230093182304223C213020FEF7DA
:1051000018FD00230093182305223C214820FEF7B8
:1051100010FD00230093182306223C216020FEF797
:1051200008FD00230093182307223C217820FEF776
:1051300000FDFEF74EFEFF4908600846006802F0D9
:105140008DFB044602460B46FBA1FD4800F006FF1E
:10515000FB4B1822CDE900231346C8223C219020A6
:10516000FEF7A5FC0023009318231A223C21CC2033
:10517000FEF7DFFC00230093182304226C2130206B
:10518000FEF7D7FC00230093182305226C2148204A
:10519000FEF7CFFC00230093182308226C21602027
:1051A000FEF7C7FC00230093182307226C21782008
:1051B000FEF7BFFCFFF77AFA064602F04FFB044603
:1051C00002460B46DFA1DE4800F0C8FEDC4B182289
:1051D000CDE900231346C8226C219020FEF767FC1E
:1051E00000230093182300229C213020FEF7A1FC0D
:1051F00000230093182301229C214820FEF799FCEC
:1052000000230093182301229C216020FEF791FCCB
:1052100000230093182309229C217820FEF789FCA3
:10522000CB488378009343780278CAA1C44800F041
:1052300095FEC34B1822CDE900231346C8229C21BA
:105240009020FEF734FC0023009318230A22CC217F
:10525000A820FEF76EFC0023009318230B22CC211C
:10526000C020FEF766FC0023009318230C22CC21FB
:10527000D820FEF75EFC0023009318230222CC21E5
:10528000F020FEF756FCB748B7A10268AC4800F022
:1052900065FEAB4B1822CDE900231346C822CC2172
:1052A0004FF48470FEF703FC7CBD1CB5B048007859
:1052B000F0BB0023009318230D220C217020FEF771
:1052C00038FC00230093182302220C218820FEF7CB
:1052D00030FC0023009318230E220C21A020FEF79F
:1052E00028FC0023009318230F220C21B820FEF77E
:1052F00020FC00230093182306223C213020FEF7D7
:1053000018FC00230093182307223C214820FEF7B5
:1053100010FC00230093182310223C216020FEF78C
:1053200008FC00230093182311223C21782000E080
:10533000BCE0FEF7FEFB8F4802788FA1804800F0AA
:105340000DFE7F4B1822CDE900231346C8223C21D5
:105350009020FEF7ACFB0023009318231A223C2177
:10536000CC20FEF7E6FB00230093182308226C21D3
:105370003020FEF7DEFB00230093182307226C2168
:105380004820FEF7D6FB00230093182310226C213F
:105390006020FEF7CEFB00230093182311226C211E
:1053A0007820FEF7C6FB7648027876A1644800F0C4
:1053B000D5FD634B1822CDE900231346C8226C218A
:1053C0009020FEF774FB00230093182312229C21E7
:1053D0003020FEF7AEFB00230093182313229C21FC
:1053E0004820FEF7A6FB00230093182314229C21DB
:1053F0006020FEF79EFB00230093182315229C21BA
:105400007820FEF796FB6248027862A14C4800F0D3
:10541000A5FD4B4B1822CDE900231346C8229C2141
:105420009020FEF744FB0023009318231622CC2182
:105430003020FEF77EFB0023009318231722CC2197
:105440004820FEF776FB0023009318231A46CC2150
:105450006020FEF76EFB0023009318231922CC2155
:105460007820FEF766FB4D4800884FF47A7190FB78
:10547000F1F201FB1200642190FBF1F0019047482A
:1054800000884FF47A7190FBF1F00090024644A13D
:105490002B48019B00F062FD294B1822CDE9002327
:1054A0001346C822CC219020FEF701FB304800783B
:1054B00001287DD10023009318230D220C21702098
:1054C000FEF737FB00230093182302220C218820CB
:1054D000FEF72FFB0023009318230E220C21A0209F
:1054E000FEF727FB0023009318230F220C21B8207E
:1054F000FEF71FFB4FF4FC602C490880002300934B
:10550000182306223C213020FEF713FB00230093D2
:10551000182307223C214820FEF70BFB00230093B1
:10552000182310223C216020FEF703FB0023009388
:1055300018233EE05C0000203A2025332E30660020
:10554000040500203A2020252E3166252520000064
:10555000280100203A202532642D2532642D253281
:1055600064000000400000203A2025326400000062
:105570002F000020320000203A2020256400000087
:10558000330000203A2020256425732525200000C3
:10559000340000203A20202564530000360000200B
:1055A0003A202532642E25644B487A0024000020DE
:1055B000C6E011223C217820FEF7BBFAFF480278B2
:1055C000AFF24C01FE4800F0C9FCFD4B1822CDE9BA
:1055D00000231346C8223C219020FEF768FA0023DE
:1055E000009318231A223C21CC20FEF7A2FA0020B7
:1055F000F449088000230093182308226C213020EE
:10560000FEF797FA00230093182307226C21482005
:10561000FEF78FFA00230093182310226C216020DC
:10562000FEF787FA00230093182311226C217820BB
:10563000FEF77FFAE4480278AFF2B801E04800F0E4
:105640008DFCDF4B1822CDE900231346C8226C21C4
:105650009020FEF72CFA00230093182312229C219D
:105660003020FEF766FA00230093182313229C21B2
:105670004820FEF75EFA00230093182314229C2191
:105680006020FEF756FA00230093182315229C2170
:105690007820FEF74EFACD480278AFF20811C848DC
:1056A00000F05CFCC64B1822CDE900231346C8224B
:1056B0009C219020FEF7FBF900230093182316226B
:1056C000CC213020FEF735FA00230093182317224F
:1056D000CC214820FEF72DFA0023009318231A4608
:1056E000CC216020FEF725FA00230093182319220D
:1056F000CC217820FEF71DFAB54800884FF47A7166
:1057000090FBF1F201FB1200642190FBF1F001909B
:10571000AF4800884FF47A7190FBF1F00090024698
:10572000AFF28411A648019B00F018FCA44B18228C
:10573000CDE900231346C822CC219020FEF7B7F90B
:10574000A448007802287ED10023009318230D225C
:105750000C217020FEF7EDF900230093182302229C
:105760000C218820FEF7E5F90023009318230E2270
:105770000C21A020FEF7DDF90023009318230F224F
:105780000C21B820FEF7D5F9002300931823062238
:105790003C213020FEF7CDF9002300931823072287
:1057A0003C214820FEF7C5F900230093182310225E
:1057B0003C216020FEF7BDF900230093182311223D
:1057C0003C217820FEF7B5F97C480278AFF25821E9
:1057D0007B4800F0C3FB7A4B1822CDE90023134627
:1057E000C8223C219020FEF762F900230093182381
:1057F0001A223C21CC20FEF79CF94FF4FC60714941
:10580000088000230093182308226C213020FEF723
:1058100090F900230093182307226C214820FEF7FB
:1058200088F900230093182310226C216020FEF7D2
:1058300080F900230093182311226C217820FEF7B1
:1058400078F9614800E087E00278AFF2C8215C484F
:1058500000F084FB5A4B1822CDE900231346C822DE
:105860006C219020FEF723F9002056490880002380
:105870000093182312229C213020FEF75AF90023AE
:105880000093182313229C214820FEF752F900238D
:105890000093182314229C216020FEF74AF900236C
:1058A0000093182315229C217820FEF742F94748DF
:1058B0000278AFF22031424800F050FB404B1822F2
:1058C000CDE900231346C8229C219020FEF7EFF873
:1058D0000023009318231622CC213020FEF729F94B
:1058E0000023009318231722CC214820FEF721F92A
:1058F0000023009318231A46CC216020FEF719F9E3
:105900000023009318231922CC217820FEF711F9E7
:105910002F4800884FF47A7190FBF1F201FB1200DE
:10592000642190FBF1F00190294800884FF47A71CE
:1059300090FBF1F000900246AFF29C312048019BB1
:1059400000F00CFB1E4B1822CDE900231346C822A1
:10595000CC219020FEF7ABF81E48007803287ED1BA
:105960000023009318230D220C217020FEF7E1F88C
:1059700000230093182302220C218820FEF7D9F877
:105980000023009318230E220C21A020FEF7D1F84B
:105990000023009318230F220C21B820FEF7C9F82A
:1059A00000230093182306223C213020FEF7C1F883
:1059B00000230093182307223C210DE03200002031
:1059C00004050020240000203300002034000020C3
:1059D000360000202F0000204820FEF7AAF8002300
:1059E0000093182310223C216020FEF7A2F8002328
:1059F0000093182311223C217820FEF79AF8FA48E8
:105A00000278AFF28C41F94800F0A8FAF74B18225F
:105A1000CDE900231346C8223C219020FEF747F829
:105A20000023009318231A223C21CC20FEF781F892
:105A300000230093182308226C213020FEF779F808
:105A400000230093182307226C214820FEF771F8E9
:105A500000230093182310226C21602000E096E0C0
:105A6000FEF767F800230093182311226C21782099
:105A7000FEF75FF8DE480278AFF2F841DB4800F04D
:105A80006DFADA4B1822CDE900231346C8226C21A7
:105A90009020FEF70CF84FF4FC60D64908800023F4
:105AA0000093182312229C213020FEF742F8002395
:105AB0000093182313229C214820FEF73AF8002374
:105AC0000093182314229C216020FEF732F8002353
:105AD0000093182315229C217820FEF72AF8C64847
